:020000040800F2
:10000000F84F002079290008550800085708000813
:100010005B0800085F080008630800080000000093
:100020000000000000000000000000006708000859
:1000300069080008000000006B0800086D0800084F
:1000400093290008932900089329000893290008A0
:100050009329000893290008932900089329000890
:100060009329000893290008932900089329000880
:100070009329000893290008932900089329000870
:100080009329000893290008932900089329000860
:100090009329000893290008932900089329000850
:1000A0009329000893290008932900089329000840
:1000B0009329000893290008932900089329000830
:1000C0009329000893290008932900089329000820
:1000D000932900089329000893290008151D00089A
:1000E0009329000893290008932900089329000800
:1000F00093290008932900089329000893290008F0
:1001000093290008932900089329000893290008DF
:1001100093290008CF230008FD0A0008932900084E
:1001200093290008932900089329000893290008BF
:1001300000F002F800F05AF80AA090E8000C82449F
:100140008344AAF10107DA4501D100F04FF8AFF27C
:10015000090EBAE80F0013F0010F18BFFB1A43F0A5
:1001600001031847A4540000C45400000A444FF08F
:10017000000C10F8013B13F0070408BF10F8014B06
:100180001D1108BF10F8015B641E05D010F8016B4B
:10019000641E01F8016BF9D113F0080F1EBF10F8AF
:1001A000014BAD1C0C1B09D16D1E58BF01F801CBD2
:1001B000FAD505E014F8016B01F8016B6D1EF9D555
:1001C0009142D6D37047000000230024002500266A
:1001D000103A28BF78C1FBD8520728BF30C148BFAA
:1001E0000B6070471FB51FBD10B510BD04F094FC27
:1001F0001146FFF7F7FF00F08EFA04F0B2FC03B4EB
:10020000FFF7F2FF03BC01F02DFD000010B504461E
:10021000232C70D2DFE804F06F12161A1E22253448
:10022000353A3F52656F6A70757B81878D92979CD6
:10023000A2A7ADB3B9BFC5CBD9DEFD000020F749F9
:100240000860FBE00120F5490860F7E00020F44970
:100250000860F3E00120F2490860EFE001F05BFE86
:10026000ECE0F048007828B101F0E6FE0020ED490E
:10027000087004E001F023FF0120EA490870DDE086
:10028000DCE01921E84801F0BDFFD7E01921E7487B
:1002900001F0B8FFD2E0E348007838B13221E448F9
:1002A00001F0B0FF0020DF49087006E03221E1488C
:1002B00001F0A8FF0120DB490870BFE0D9480078B1
:1002C00038B13221DC4801F09DFF0020D54908708B
:1002D00006E03221D94801F095FF0120D14908708C
:1002E000ACE06421D64801F08DFFA7E06421D54839
:1002F00001F088FFA2E0A0E0FA21D34801F082FFDC
:100300009CE040F21311D14801F07CFF96E04FF4DD
:10031000E171CF4801F076FF90E04FF4E171CD48F4
:1003200001F070FF8AE040F21311CB4801F06AFF40
:1003300084E0AF21C94801F065FF7FE09621C848FD
:1003400001F060FF7AE09621C64801F05BFF75E09E
:1003500040F2D521C44801F055FF6FE01921C34890
:1003600001F050FF6AE040F22621C14801F04AFF47
:1003700064E040F64851BF4801F044FF5EE041F2BE
:100380002B61BD4801F03EFF58E041F2C611BB4869
:1003900001F038FF52E040F67A51B94801F032FFDF
:1003A0004CE041F21E41B74801F02CFF46E040F21C
:1003B000A911B54801F026FF1921AC4801F022FF30
:1003C00019219A4801F01EFF38E07D21AF4801F065
:1003D00019FF33E03221964801F014FFC82002F0E3
:1003E0009EFA3221934801F00DFFC82002F097FADF
:1003F00032218F4801F006FFC82002F090FA322126
:100400008C4801F0FFFEC82002F089FA32218848AA
:1004100000E011E001F0F6FEC82002F080FA32217F
:10042000844801F0EFFEC82002F079FA40F2A321DF
:10043000974801F0E7FE01E000E000BF00BF10BDFB
:100440002DE9F0438DB001244FF0000801E0601C5D
:1004500004B29048005D2028F9D00BE02046611CD2
:100460000CB28C49085C08EB880100EB4100303885
:100470000FFA80F88748005D3A2803DA8548005D66
:100480002F28EBDC00208449087097E00027002526
:10049000002608E0002007A921F8160001A921F88C
:1004A0001600701CC6B20C2EF4DB2CE000BF2046F8
:1004B000611C0CB27749085C2028F8D110E0204676
:1004C000611C0CB27349085C07A931F8151001EBE7
:1004D000810100EB4100303800B207A921F8150076
:1004E0006C48005D3A2803DA6A48005D2F28E6DC94
:1004F000601E6849085C3A2805DA601E085C2F28EF
:1005000001DD681CC5B20C2DD0DB00252CE000BF3E
:100510002046611C0CB25F49085C2028F8D110E02D
:100520002046611C0CB25B49085C01A931F815102A
:1005300001EB810100EB4100303800B201A921F844
:1005400015005448005D3A2803DA5248005D2F2810
:10055000E6DC601E4F49085C3A2805DA601E085C3C
:100560002F2801DD681CC5B20C2DD0DB01E0601C1A
:1005700004B24848005D2028F9D00AE02046611CFA
:100580000CB24449085C07EB870100EB41003038AE
:1005900007B24048005D3A2803DA3E48005D2F2844
:1005A000ECDC322097FBF0F00FFA80F94A4601A903
:1005B00007A801F073FCB8B202F0B1F95FEA0800D5
:1005C000A8F101010FFA81F804D03348007800281F
:1005D0003FF45CAF0DB0BDE8F0838CB0002019E0B3
:1005E0002C4A411C515C1346821C9A5C0832914093
:1005F00009B206AA22F810101A4600F11901515C3E
:1006000000F11A029A5C0832914009B22DF81010DC
:10061000411CC8B20C28E3DB0CB07047B00121428A
:10062000B4012242000400201ACC0108E8CB0108E2
:1006300084CB010820CB0108BCCA010858CA0108B4
:1006400090C90108C8C80108D4C60108AEC4010891
:100650002AC10108A6BD010880BB010822BA010811
:10066000F6B80108CAB7010820B20108EEB10108C6
:10067000A2AD010812930108BC66010830430108CD
:100680003C2801080000010846CD01084CCC0108B7
:1006900098D0010834090020A207002010B5634853
:1006A0000078C8B162480078592810D16048407875
:1006B000532804D15E49887801F043FF07E05C4885
:1006C0004078542803D15A48801C01F0BFFE002016
:1006D00056490870012010BD0020FCE710B55548B0
:1006E0000078B0B154480078442801D1FFF7A8FE43
:1006F00003E051490878FFF789FD4F48007818B1A9
:100700004D4800784128F4DB00204A490870012058
:1007100010BD0020FCE71CB502F0C4F84FF4A06047
:1007200002F0CEFE35208DF8040001208DF8050082
:1007300002208DF8060001208DF8070001A802F0C4
:10074000C4FE27208DF8040001208DF80500032049
:100750008DF8060001208DF8070001A802F0B5FE13
:100760000823364A3649374801F0CDFD00F080FEB7
:100770000121344804F015F9012131484C3803F0C7
:10078000AEFE00F065F900202F4908602F49C1F83E
:10079000B4014FF4487002F0C2F801F0CFF901F053
:1007A00063F800221146104601F055F9102002238B
:1007B000172203210090062001F0ECF84FF4E130FD
:1007C00001F05FFA4FF4165001F0C2FD472141F2EB
:1007D000873000F092FA472141F2873000F083FC25
:1007E000472141F2873000F0D4FB472141F28730A6
:1007F00000F015FD472141F2873000F0ABFD4721A5
:1008000041F2873000F011FB41F61F4140F2F31036
:1008100000F04EF919210E4801F0F4FC00BF00BFB2
:1008200003E0FFF75BFFFFF739FFFAE7A6070020B9
:1008300034290020A20700203409002024090020C8
:100840004C24014008000240B00121420000224235
:10085000E8CB0108704700BFFEE700BFFEE700BF1E
:10086000FEE700BFFEE77047704770477047000023
:100870000CB50020019000906C48006840F4803076
:100880006A49086000BF6948006800F400300090C1
:100890000198401C0190009818B90198B0F5A06F1C
:1008A000F1D16248006800F4003010B101200090DE
:1008B00001E0002000900098012843D15C480068C6
:1008C00040F010005A4908600846006820F0030014
:1008D00008600846006840F002000860534840681D
:1008E000524948600846406848600846406840F4FD
:1008F000806048600846406820F47C1048600846E4
:10090000406840F4E81048600846006840F0807095
:10091000086000BF4548006800F000700028F9D06A
:100920004248406820F0030040494860084640685B
:1009300040F00200486000BF3C48406800F00C00F6
:100940000828F9D10CBD10B5FFF792FF10BD10B506
:100950003648006840F001003449086008464068A5
:100960003449084031494860084600683249084027
:100970002E4908600846006820F480200860084678
:10098000406820F4FE0048604FF41F008860FFF7C5
:10099000DAFF4FF000602949086010BD10B5002152
:1009A00000200022214B5B6803F00C0121B10429D7
:1009B00006D0082928D107E0214B224C236027E0EC
:1009C0001F4B204C236023E0184B5B6803F470102E
:1009D000164B5B6803F48032022303EB904022B98C
:1009E000194B4343174C23600DE0104B5B6803F435
:1009F000003323B1144B4343124C236003E0104BEC
:100A00004343104C236003E00D4B0E4C236000BFAA
:100A100000BF064B5B68C3F303130C4CE15C094B4E
:100A20001B68CB40074C236010BD00000010024043
:100A3000002002400000FFF8FFFFF6FE08ED00E096
:100A400000127A000404002000093D000804002080
:100A500008B50121142002F0CBFA4FF48050ADF814
:100A6000000010208DF8030003208DF80200694675
:100A70000D4802F001F84FF480510B4802F0A9F83C
:100A80004FF40050ADF8000010208DF80300032053
:100A90008DF802006946054801F0EEFF4FF4005161
:100AA000024802F096F808BD00080140001001401D
:100AB00038B505460C46FE48C06940F01000FC49B8
:100AC000C861FC4885850485808940F00100F949AA
:100AD00088810846008840F00100088036208DF8A3
:100AE000000000208DF8010005208DF80200012093
:100AF0008DF80300684602F0E8FC38BD10B5ED48FB
:100B0000008A00F0010000287AD00020EA4908702D
:100B10006EE0EA48E849097830F9110000282DDD37
:100B2000E748E549097830F91100E449E24A1278CA
:100B300031F91210401AE349DF4A127831F91210E4
:100B4000884211DDDF48DC49097830F81100DB49C3
:100B5000D94A127831F81210084401B2D948D64A5D
:100B6000127820F8121009E0D548D349097830F8F6
:100B70001110D448D04A127820F81210CF48CE492C
:100B8000097830F9110000282DDACD48CA490978D2
:100B900030F91110C948C84A127830F91200091A00
:100BA000C848C54A127830F91200814211DAC548A6
:100BB000C149097830F81100C049BF4A127831F8AC
:100BC0001210084400B2BF49BB4A127821F8120043
:100BD00009E0BB48B849097830F81100B949B64A6C
:100BE000127821F81200B4480078401CB24908700D
:100BF000B14800780C288CDB0020AF4908706FE00A
:100C000074E0B148AC49097830F9110000282DDDB5
:100C1000AE48A949097830F91110AB48A64A1278B4
:100C200030F91200081AAA49A34A127831F91210B1
:100C3000884211DDA648A049097830F81110A24871
:100C40009D4A127830F81200084401B2A0489A4A2E
:100C5000127820F8121009E09C489749097830F87A
:100C600011009B49944A127821F812009648924943
:100C7000097830F9110000282DDA94488E49097856
:100C800030F9110090498C4A127831F91210411A4A
:100C90008F48894A127830F91200814211DA8C4863
:100CA0008549097830F811008749834A127831F86C
:100CB0001210084401B286487F4A127820F81210B8
:100CC00009E082487C49097830F8110080497A4A65
:100CD000127821F8120078480078401C7649087094
:100CE000754800780C288CDB01F02BFA7148008ADB
:100CF00020F001006F49088210BD30B589B005466B
:100D00000C460121C80202F073F90121042002F00F
:100D10006FF94FF47060ADF8200018208DF82300B3
:100D200003208DF8220008A96A4801F0A5FEADF85D
:100D30001850ADF814400020ADF81A00ADF81600B8
:100D400005A9654802F0FEFC7020ADF80400012002
:100D5000ADF806000020ADF80A000220ADF80C0046
:100D600001A95D4802F02BFD5B481830008840F077
:100D700008005949183108800846008840F400608E
:100D80000880081D008840F00800091D08800846FA
:100D9000008840F400600880081F008840F0700060
:100DA000091F08800846008840F4E0400880081DBC
:100DB000008840F07000091D08800846008840F453
:100DC000E04008800121444803F024F8082142480B
:100DD00003F044F940482030008840F010003E49BC
:100DE000203108800846008840F02000088008462E
:100DF000008840F4807008800846008840F4007045
:100E000008800846008840F4805008800846008822
:100E100040F40050088001212F4803F0EFF8012131
:100E20002D4802F0EBFF09B030BD30B589B0054662
:100E30000C460121480302F0DBF80121102002F0EA
:100E4000D7F84FF47070ADF8200018208DF823000B
:100E500003208DF8220008A9204801F00DFEADF80E
:100E60001850ADF814400020ADF81A00ADF8160087
:100E700005A91B4802F066FC7020ADF804000120B3
:100E8000ADF806000020ADF80A000220ADF80C0015
:100E900001A9134802F093FC11481830008840F073
:100EA00008000F4918310880084600881AE0000041
:100EB00000100240001000401804002034490020B7
:100EC000F0070020C00700204C490020D807002070
:100ED000A807002000080140002C0140001001403C
:100EE0000034014040F400600880081D008840F094
:100EF0000800091D08800846008840F4006008804A
:100F0000081F008840F07000091F0880084600880C
:100F100040F4E0400880081D008840F07000091D82
:100F200008800846008840F4E04008800121FE481F
:100F300002F070FF0821FC4803F090F8FA482030D6
:100F4000008840F01000F8492031088008460088E9
:100F500040F0200008800846008840F48070088037
:100F60000846008840F4007008800846008840F475
:100F7000805008800846008840F400500880012115
:100F8000E94803F03BF80121E74802F037FF09B0D8
:100F900030BD70B505460C460121092002F028F845
:100FA000E248C06940F00100E049C8610846806934
:100FB00040F0040088610846806940F008008861BC
:100FC000DB48006820F07040D94908600846006896
:100FD00040F030400860D748006820F47040D549A0
:100FE00008600846006840F430400860081D00684A
:100FF00020F47F40091D08600846006840F43B402B
:101000000860CA48806940F00100C8498861CA4840
:10101000406820F44070C84948600846406840F481
:10102000407048600121C54801F0F7FD4FF0804055
:1010300085850485008B40F070004FF08041088367
:101040000846008B40F0080008830846008C40F0FA
:10105000010008840846008C40F00200088408461D
:10106000008B40F4E04008830846008B40F40060A9
:1010700008830846008C40F0100008840846008C65
:1010800040F0200008840846808B40F07000888380
:101090000846808B40F0080088830846008C40F4A6
:1010A000807008840846008C40F40070088408466C
:1010B000808B40F4E04088830846808B40F40060D9
:1010C00088830846008C40F4805008840846008CD1
:1010D00040F40050088480200880C005008840F05B
:1010E0000100088070BD914AD26942F002028F4B24
:1010F000DA611A46926942F004029A611A469269CC
:1011000042F008029A618A4A121F126822F07F4256
:10111000874B1B1F1A601A46126842F03B421A6046
:10112000844A126822F0FF02824B1A601A46126843
:1011300042F0BB021A60824A1080121F1180804A5E
:10114000143A128842F070027D4B143B1A801A4602
:10115000128842F008021A80794A0C3A128842F04A
:101160000102774B0C3B1A801A46128842F00202A9
:101170001A80734A143A128842F4E042704B143BCE
:101180001A801A46128842F400621A806C4A0C3A9D
:10119000128842F010026A4B0C3B1A801A461288E1
:1011A00042F020021A801A1F128842F070021B1FA0
:1011B0001A801A46128842F008021A801A1D1288F4
:1011C00042F480721B1D1A801A46128842F4007283
:1011D0001A801A1F128842F4E0421B1F1A801A4616
:1011E000128842F400621A801A1D128842F480525A
:1011F0001B1D1A801A46128842F400521A801A1FC8
:10120000128842F070021B1F1A8080224C4B2C3B2C
:101210001A801A46128842F001021A807047434A27
:10122000D26942F00402414BDA61424A126822F06C
:101230007F42404B1A601A46126842F03B421A60E5
:101240001A1D126822F0FF021B1D1A601A4612684E
:1012500042F0BB021A603B4A1080121F1180394ACB
:10126000143A128842F07002364B143B1A801A4628
:10127000128842F008021A80324A0C3A128842F070
:101280000102304B0C3B1A801A46128842F00202CF
:101290001A802C4A143A128842F4E042294B143B3B
:1012A0001A801A46128842F400621A80254A0C3AC3
:1012B000128842F01002234B0C3B1A801A46128807
:1012C00042F020021A801A1F128842F070021B1F7F
:1012D0001A801A46128842F008021A801A1D1288D3
:1012E00042F480721B1D1A801A46128842F4007262
:1012F0001A801A1F128842F4E0421B1F1A801A46F5
:10130000128842F400621A801A1D128842F4805238
:101310001B1D1A801A46128842F400521A8080223D
:10132000084B2C3B1A800FE00034014000100240B3
:1013300004080140000C01400000014000023000A0
:101340002C0400402C0800401A46128842F001028A
:101350001A807047434AD26942F00802414BDA6171
:10136000414A12686FF30F023F4B1A601A46126827
:101370004BF6BB331A433C4B1A603C4A1080121F99
:1013800011803A4A143A128842F07002374B143BEB
:101390001A801A46128842F008021A80334A0C3A20
:1013A000128842F00102314B0C3B1A801A46128817
:1013B00042F002021A802D4A143A128842F4E042A6
:1013C0002A4B143B1A801A46128842F400621A8093
:1013D000264A0C3A128842F01002244B0C3B1A8029
:1013E0001A46128842F020021A801A1F128842F010
:1013F00070021B1F1A801A46128842F008021A80D7
:101400001A1D128842F480721B1D1A801A46128817
:1014100042F400721A801A1F128842F4E0421B1F25
:101420001A801A46128842F400621A801A1D128825
:1014300042F480521B1D1A801A46128842F4005250
:101440001A801A1F128842F070021B1F1A80802215
:10145000064B2C3B1A801A46128842F001021A8071
:101460007047000000100240000801402C0C0040B2
:1014700000B587B001214FF4057001F0B9FD4FF4BC
:10148000004001F019FD3F20ADF8040000208DF868
:10149000070001A9774801F0EFFA3020ADF8040009
:1014A00000208DF8070001A9734801F0E5FA7348A0
:1014B00002F082FF0020029001208DF80C008DF8D0
:1014C0000D004FF4602004900020059008208DF856
:1014D000180002A9694802F096FF072301220A2199
:1014E000664803F028F8072302220B21634803F023
:1014F00022F8072303220C21604803F01CF807237D
:1015000004220D215D4803F016F80723052204216B
:101510005A4803F010F8072306220521574803F024
:101520000AF807231A460E21544803F004F807234B
:1015300008220F21514802F0FEFF01214F4802F01E
:1015400099FF01214D4802F08AFF4C4802F0A9FFA3
:1015500000BF4A4802F0AAFF0028FAD1474802F02B
:10156000AFFF00BF454802F0B0FF0028FAD107B036
:1015700000BD70B503460A4618460DE0811C08E020
:1015800005880E88B54203DB04880D8805800C8031
:10159000891C9142F4D9801C9042EFD370BD70B584
:1015A000ADF57B5D202108A803F08BFA002516E03D
:1015B00000240DE0324830F8140004EB4401C1EB84
:1015C000C41110AA02EB011121F81500601CC4B26D
:1015D000082CEFDB012001F0A2F9681C85B2B5F5FB
:1015E0007A7FE5DB002412E004EB4402C2EBC41274
:1015F00010AB03EB021202F2CE7104EB4402C2EB19
:10160000C41203EB0210FFF7B4FF601CC4B2082C35
:10161000EADBC82517E0002411E004EB4400C0EB2E
:10162000C41010A901EB001030F8150008A951F8FA
:101630002410084408A941F82400601CC4B2082CF6
:10164000EBDB681C85B2B5F5487FE4DB00240BE0DA
:1016500008A850F824004FF41671B0FBF1F004A96B
:1016600021F81400601CC4B2082CF1DB0DF57B5D81
:1016700070BD704700100140000801400024014087
:101680002409002010B52021F94801F0A2FA102108
:10169000F74801F09EFA1021F54801F09CFA20214C
:1016A000F34801F098FA10BD10B52021F04801F080
:1016B00090FA1021EE4801F08EFA1021EC4801F06A
:1016C00088FA10BD10B52021E94801F082FA2021E6
:1016D000E74801F080FA10BD2DE9F04105462C469F
:1016E0002021E34801F077FA002619E0274607F0A9
:1016F0008007802F04D11021DD4801F06AFA03E051
:101700001021DB4801F067FA6006040E2021D8485A
:1017100001F05FFA2021D64801F05DFA701CC6B2D4
:10172000082EE3DBBDE8F08110B50446FFF7AAFF01
:101730007820FFF7D1FFFFF7C5FF0020FFF7CCFFB0
:10174000FFF7C0FF2046FFF7C7FFFFF7BBFFFFF71C
:10175000ABFF10BD10B50446FFF794FF7820FFF7EC
:10176000BBFFFFF7AFFF4020FFF7B6FFFFF7AAFF71
:101770002046FFF7B1FFFFF7A5FFFFF795FF10BD6C
:1017800070B504460D461DB1E0B2FFF7E3FF02E07D
:10179000E0B2FFF7C9FF70BD70B50646002418E03F
:1017A00004F1B0000021FFF7EBFF00210846FFF72E
:1017B000E7FF00211020FFF7E3FF002505E00121EE
:1017C0003046FFF7DDFF681CC5B2802DF7DB601CDB
:1017D000C4B2082CE4DB70BD06E041F6650100E010
:1017E000491E0029FCD1401E0028F6D17047014651
:1017F00005E0002001E0421CD0B27B28FBDB0A00A0
:10180000A1F10101F5D1704770B504460D4605F10F
:10181000B0000021FFF7B4FF102141EA14100021AD
:10182000FFF7AEFF04F00F000021FFF7A9FF70BD26
:1018300010B500218D20FFF7A3FF00211420FFF732
:101840009FFF0021AF20FFF79BFF10BD10B50021C7
:101850008D20FFF795FF00211020FFF791FF002159
:10186000AE20FFF78DFF10BD70B5002418E004F125
:10187000B0000021FFF784FF00210846FFF780FF3A
:1018800000211020FFF77CFF002505E0012100204A
:10189000FFF776FF681CC5B2802DF7DB601CC4B271
:1018A000082CE4DB70BD70B5002418E004F1B00032
:1018B0000021FFF765FF00210846FFF761FF0021C7
:1018C0001020FFF75DFF002505E001210846FFF726
:1018D00057FF681CC5B2802DF7DB601CC4B2082C12
:1018E000E4DB70BD2DE9F04707460E469046994669
:1018F00000250024A8F12000C5B27F2F02DD0027BB
:10190000B01CC6B2B9F1100F24D131463846FFF7EA
:101910007BFF002408E004EB0511564A505C0121CE
:10192000FFF72EFF601CC4B2082CF4DB701CC1B2A0
:101930003846FFF769FF002409E004EB0511083180
:101940004C4A505C0121FFF71BFF601CC4B2082CFD
:10195000F3DB12E031463846FFF756FF00240AE079
:1019600005EB4501444A02EB4101085D0121FFF707
:1019700007FF601CC4B2062CF2DBBDE8F08710B58F
:101980000246012000E050430B00A1F10104E1B246
:10199000F9D110BD2DE9FF5F074691461E460E9D09
:1019A0004FF0000A002435E0301B401EC1B20A206F
:1019B000FFF7E5FFB9FBF0F00A21B0FBF1F201FB04
:1019C0001208BAF1000F14D1701EA04211DDB8F157
:1019D000000F0CD1AB4605EBDB71491001FB047124
:1019E000C8B22B4620220199FFF77CFF10E04FF090
:1019F000010AAB4605EBDB71491001FB0471C8B26B
:101A000008F13001CAB22B460199FFF76BFF00BF06
:101A1000601CC4B2B442C7DBBDE8FF9F2DE9F041B2
:101A200004460F461546984600260FE0AA5D434639
:101A300039462046FFF756FF04F10800C4B2782C5F
:101A400002DD0024B81CC7B2701CC6B2A85D002815
:101A5000ECD1BDE8F0812DE9F04180460E461546F7
:101A6000002731464046FFF7CFFE002411E000007A
:101A7000000C0140A04D0008784B0008764A02EBAC
:101A80008511085D0121FFF77BFE781CC7B2601C41
:101A9000C4B2102CF2DB701CC1B24046FFF7B4FE9A
:101AA00000240CE06900491C6B4A02EB4111085DFF
:101AB0000121FFF765FE781CC7B2601CC4B2102C70
:101AC000F0DBBDE8F0812DE9F05F06460F46904659
:101AD0001C46DDF828A04FF0000BE11704EB517114
:101AE000C910A4EBC10131B92046E11704EB5171D3
:101AF000C1F3C70506E02046E11704EB5171C91098
:101B0000491CCDB23D4615E029463046FFF77CFE24
:101B1000B1460BE059460BF1010B1AF80100012107
:101B2000FFF72EFE09F1010000F0FF09C145F1DBCE
:101B3000681CC5B2A542E7DBBDE8F09F08B50121EE
:101B4000084601F055FA0121444801F066F80121E8
:101B5000082001F04DFA3020ADF8000010208DF87B
:101B6000030003208DF8020069463D4800F084FF21
:101B700030213B4801F02DF8C82000F0D0FE0021B4
:101B8000AE20FFF7FDFD00210846FFF7F9FD00211B
:101B90001020FFF7F5FD00214020FFF7F1FD0021A7
:101BA000B020FFF7EDFD00218120FFF7E9FD0021C6
:101BB000FF20FFF7E5FD0021A120FFF7E1FD002157
:101BC000A620FFF7DDFD0021A820FFF7D9FD0021A9
:101BD0003F20FFF7D5FD0021C820FFF7D1FD0021F0
:101BE000D320FFF7CDFD00210846FFF7C9FD0021F6
:101BF000D520FFF7C5FD00218020FFF7C1FD0021A2
:101C0000D820FFF7BDFD00210520FFF7B9FD002119
:101C1000D920FFF7B5FD0021F120FFF7B1FD00212C
:101C2000DA20FFF7ADFD00211220FFF7A9FD00210A
:101C3000DB20FFF7A5FD00213020FFF7A1FD0021EB
:101C40008D20FFF79DFD00211420FFF799FD002155
:101C5000AF20FFF795FD08BD1904002000023000F9
:101C6000000C0140014600BF704700BF814A128846
:101C700002F04002002AF9D0C2B27E4B1B1D1A802E
:101C8000704710B586B004460121084601F0B0F94E
:101C90000121794800F0C1FF0121102001F0A8F9CD
:101CA0000121880401F0B1F94FF48060ADF814000F
:101CB00003208DF8160018208DF8170005A96F482D
:101CC00000F0DAFE4FF40060ADF8140004208DF847
:101CD000170005A9694800F0CFFE01940020ADF877
:101CE0000800ADF80A00ADF80C00ADF810000C20AB
:101CF000ADF80E0001A95F4801F021FA012240F27F
:101D000025515C4801F0B3FA01215A4801F0A3FAC9
:101D100006B010BD10B540F22551564801F08CFBBD
:101D2000002810D0534801F007FBC4B25448008883
:101D300050B954480470524801880088401C504AE9
:101D400010805148445486E05048008850B94D48AE
:101D500004704E4801880088401C4C4A10804C4852
:101D6000445478E04748007859283DD147480088D6
:101D700000F4004000286ED14448008800F4804000
:101D800088B10A2C03D000204049088063E03F4816
:101D9000008840F400403D49088000200880012070
:101DA0003C49087057E00D2C0BD100203849374AC8
:101DB000128888543548008840F4804033490880B0
:101DC00049E032480088C0F30D0031490C542F48D7
:101DD0000088401C2D49088008460088B0F5005F47
:101DE00039DB0020088036E02548008800F40040F8
:101DF00088BB2348008800F4804088B10A2C03D0B7
:101E000000201F49088026E01D48008840F400405B
:101E10001B4908800020088001201F4908701AE033
:101E20000D2C06D11648008840F4804014490880E3
:101E300011E013480088C0F30D0013490C541048FA
:101E40000088401C0E49088008460088B0F5005FF5
:101E500001DB0020088010BD10B50446214605486E
:101E600001F066FA00BF4021024801F0CFFA0028D5
:101E7000F9D010BD004800401000140000100140CF
:101E8000A0070020A707002034090020A407002095
:101E900034290020A6070020A207002030B5034601
:101EA000002035E033F91040002C15DD33F81040E8
:101EB000FE4D35F81050641B24B2FD4D25F810403E
:101EC00033F91040FB4D35F91050641B94FBF2F4CC
:101ED00024B2F94D25F8104031F91040002C15DDE1
:101EE00031F81040F54D35F81050641B24B2F44D14
:101EF00025F8104031F91040F24D35F91050641BAF
:101F000094FBF2F424B2F04D25F81040441CE0B2EA
:101F10000C28C7DB30BD00B58DB01822EB4907A8EF
:101F200002F09DFD1822E949183101A802F097FD41
:101F3000142201A907A8FFF7B1FF0DB000BD00B53D
:101F40008DB01822E149303107A802F088FD18222F
:101F5000DE49483101A802F082FD142201A907A838
:101F6000FFF79CFF0DB000BD00B58DB01822D7491A
:101F7000603107A802F073FD1822D449783101A816
:101F800002F06DFD142201A907A8FFF787FF0DB02D
:101F900000BD00B58DB01822CC49903107A802F0E1
:101FA0005EFD1822C949A83101A802F058FD14228B
:101FB00001A907A8FFF772FF0DB000BD00B58DB0F5
:101FC0001822C249C03107A802F049FD1822BF49B2
:101FD000D83101A802F043FD142201A907A8FFF798
:101FE0005DFF0DB000BD00B58DB01822B749F031CE
:101FF00007A802F034FD1822B54901A802F02FFD10
:10200000142201A907A8FFF749FF0DB000BD00B5D4
:102010008DB01822AE49183107A802F020FD182211
:10202000AB49303101A802F01AFD142201A907A81A
:10203000FFF734FF0DB000BD00B5A5B01822A449CC
:1020400048311FA802F00BFD1822A149603119A8E0
:1020500002F005FD18229E49783113A802F0FFFC1A
:1020600018229B4990310DA802F0F9FC18229849DA
:10207000A83107A802F0F3FC18229549C03101A845
:1020800002F0EDFC0A2219A91FA8FFF707FF4FF481
:102090002F7000F044FC0A220DA913A8FFF7FEFEE2
:1020A0004FF42F7000F03BFC052201A907A8FFF7B1
:1020B000F5FE4FF4967000F032FC25B000BD00B57F
:1020C000A5B018228249D8311FA802F0C8FC1822F6
:1020D0007F49F03119A802F0C2FC18227D4913A8EB
:1020E00002F0BDFC18227B4918310DA802F0B7FCA4
:1020F00018227849303107A802F0B1FC182275493E
:10210000483101A802F0ABFC0A2219A91FA8FFF769
:10211000C5FE4FF42F7000F002FC0A220DA913A88F
:10212000FFF7BCFE4FF42F7000F0F9FB052201A968
:1021300007A8FFF7B3FE4FF4967000F0F0FB25B050
:1021400000BD5C480088644908805A484088091DE1
:10215000088058488088614908805648C088091D11
:10216000088054480089091D088052484089091D8B
:10217000088050488089090688864E48C0890887AB
:102180004C48008A564908804A48408A091D088000
:102190004848808A091D08804648C08A091D088071
:1021A000484800884C49091F088046484088091F54
:1021B0000880444880884B4908804248C088090606
:1021C000888740480089484908803E484089091F5F
:1021D00008803C488089091F08803A48C089091F47
:1021E00008803848008A414908803648408A091FDB
:1021F00008803448808A091F08803248C08A091F35
:10220000088070472DE9F0418CB006460F46002447
:10221000002500BF45E000250EE0601936F81000EB
:1022200006A921F8150004F10C00284436F8100026
:102230002DF81500681CC5B20C2DEEDB04F118005A
:1022400036F91000322190FBF1F00FFA80F8424687
:10225000694606A8FFF722FE04F1180136F81110AE
:1022600088B200F05CFB22480078B8B121480078C1
:10227000592810D11F484078532804D11D49887827
:1022800000F05FF907E01B484078542803D1194853
:10229000801C00F0DBF800201549087004F11900DB
:1022A00004B2BC422CDA1448007827E064490020CC
:1022B000D8070020A80700204C4900207C490020B6
:1022C000F0070020C0070020344900209053000888
:1022D00098540008A05500083C340140342C0140BB
:1022E000340800404000004040040040400C0040E2
:1022F000A6070020342900203409002000288AD1B4
:102300000CB0BDE8F081F0B58BB007460C46154621
:102310001E460121084600F05EFE384602F074FABF
:10232000009401950020029003960490802005906F
:10233000400006908000079020200890000209903D
:1023400000200A906946384602F000FB0BB0F0BD51
:1023500010B586B004460121302000F049FE01216D
:10236000080500F052FE4FF48050ADF81400032031
:102370008DF8160018208DF8170005A9264800F0E2
:102380007BFB0420ADF814008DF8170005A9234845
:1023900000F072FB01940020ADF80800ADF80A00CF
:1023A000ADF80C00ADF810000C20ADF80E0001A93E
:1023B0001B4800F0C4FE012240F22551184800F0ED
:1023C00056FF0121164800F046FF06B010BD10B5BB
:1023D00040F22551124801F02FF818B1104800F0D2
:1023E000ABFFC4B210BD10B5044621460C4800F046
:1023F0009FFF00BF40210A4801F008F80028F9D0EB
:1024000010BD10B5044603E02078FFF7ECFF641C14
:1024100020780028F8D110BD0010014000140140C0
:10242000005000400146002001E0421C90B211F82B
:10243000013B002BF9D1704703E011F8012B00F8A4
:10244000012B0A78002AF8D1027070472DE9F0417B
:10245000ADF59E5D07464FF49C5110A802F031FB8C
:10246000F14806C8CDE90E120525F04A127802EBB4
:102470004202EF4B03EB42010EAA5019FFF7DCFFBB
:102480000EA8FFF7CFFF0546EA4A127802EB420298
:10249000E94B03EB42010EAA5019FFF7CDFF0EA83E
:1024A000FFF7C0FF0546E54A127802EB4202E44B13
:1024B00003EB42010EAA5019FFF7BEFF0EA8FFF76B
:1024C000B1FF0546DF4A127802EB4202DE4B03EB16
:1024D00042010EAA5019FFF7AFFF0EA8FFF7A2FFA7
:1024E00005463846FFF79EFF04466019C01E84B2B9
:1024F000FD218DF8381021128DF839102046E11792
:1025000004EB11610912A4EB0121CAB28DF83A2043
:1025100001208DF83B008DF83C000EA94819394682
:10252000FFF78AFF002605E00EA9885DFFF75BFF35
:10253000701C86B2E01C8642F6DB0DF59E5DBDE8A0
:10254000F08130B587B00446092C64D2DFE804F08E
:102550006305101B26313C475500B4480078401CE9
:102560000B2190FBF1F201FB1200B049087053E01F
:10257000AE4800780A300B2190FBF1F201FB12000B
:10258000AA49087048E0AB480078401C0B2190FB3A
:10259000F1F201FB1200A74908703DE0A548007860
:1025A0000A300B2190FBF1F201FB1200A1490870E7
:1025B00032E0A2480078401C0B2190FBF1F201FBB5
:1025C00012009E49087027E09C4800780A300B21D1
:1025D00090FBF1F201FB1200984908701CE0994849
:1025E0000078401C062190FBF1F201FB1200954996
:1025F000087096A0FFF72AFF0EE005208B490870AF
:102600008C4908708D49087001208E49087095A08A
:10261000FFF71CFF00E000BF00BF012C01D0022C1F
:1026200030D1824800780A2809D131208DF8040081
:1026300030208DF8050000208DF8060008E07B486A
:1026400000783030C0B28DF8040000208DF805000D
:1026500089A102A8FFF7F0FE02A8FFF7E3FE0546F6
:1026600002A9481901A9FFF7E7FE02A8FFF7DAFE61
:10267000054602A9481983A1FFF7DEFE02A8FFF76D
:10268000E5FE68E0032C01D0042C30D169480078C5
:102690000A2809D131208DF8040030208DF805007A
:1026A00000208DF8060008E0624800783030C0B2A3
:1026B0008DF8040000208DF8050073A102A8FFF733
:1026C000BBFE02A8FFF7AEFE054602A9481901A904
:1026D000FFF7B2FE02A8FFF7A5FE054602A94819BA
:1026E00068A1FFF7A9FE02A8FFF7B0FE33E0052CB2
:1026F00001D0062C2FD1514800780A2809D1312069
:102700008DF8040030208DF8050000208DF80600BB
:1027100008E04A4800783030C0B28DF8040000204C
:102720008DF805005BA102A8FFF786FE02A8FFF75F
:1027300079FE054602A9481901A9FFF77DFE02A806
:10274000FFF770FE054602A948194EA1FFF774FE77
:1027500002A8FFF77BFE07B030BD10B5202150481E
:1027600000F037FA10214E4800F033FA10214C489F
:1027700000F031FA20214A4800F02DFA10BD10B5C2
:102780002021474800F025FA1021454800F023FA9F
:102790001021434800F01DFA10BD10B5202140481B
:1027A00000F017FA20213E4800F015FA10BD70B570
:1027B000044620213A4800F00EFA002619E025468A
:1027C00005F08005802D04D11021354800F001FA74
:1027D00003E01021324800F0FEF96006040E2021CB
:1027E0002F4800F0F6F920212D4800F0F4F9701C74
:1027F000C6B2082EE3DB70BD70B505460E46FFF786
:10280000ACFF8020FFF7D3FFFFF7C7FF002406E0EF
:10281000285DFFF7CCFFFFF7C0FF601C84B2B44215
:10282000F6DBFFF7ACFF70BD00560008060900207C
:102830001C080020070900205E080020080900206D
:10284000A008002009090020E2080020CED2CFD63F
:10285000D4DAB5C4C9F9D2F4CAC7D5E2D1F9B5C43E
:1028600000000000C9F9D2F4D2D1BBD6B8B4C4ACD0
:10287000C8CFC9E8D6C30000D3EFCBD9D2D1B5F7C2
:10288000B5BD0000BCB60000D3EFB5F7D2D1B5F7A7
:10289000B5BD0000D2F4C1BFD2D1B5F7B5BD0000BF
:1028A000000C014010B56FF0040000F058FE2E48F7
:1028B00000682E49B0FBF1F02D49087008460078F9
:1028C00000EB4001C1EBC0104FF6FF7101EAC00000
:1028D0002849088010BD0146254A12784A434FF026
:1028E000E0235A6100229A611A46126942F00102FD
:1028F0001A6100BF4FF0E022106900F001021AB126
:1029000000F48032002AF5D04FF0E022126922F064
:1029100001024FF0E0231A6100229A6170470146DC
:10292000144A12884A434FF0E0235A6100229A6108
:102930001A46126942F001021A6100BF4FF0E0220C
:10294000106900F001021AB100F48032002AF5D0BB
:102950004FF0E022126922F001024FF0E0231A61E9
:1029600000229A61704700000404002000127A00DF
:102970000A0900200C09002009488047094800473F
:10298000FEE7FEE7FEE7FEE7FEE7FEE7FEE7FEE71F
:10299000FEE7FEE704480549054A064B704700007C
:1029A0004F09000831010008F8490020F84F0020C5
:1029B000F84B0020F84B002010B50446CC48844268
:1029C00008D10121042000F02DFB0021042000F09B
:1029D00029FB46E0C748844208D10121082000F0C5
:1029E00021FB0021082000F01DFB3AE0C248844290
:1029F00008D10121102000F015FB0021102000F06B
:102A000011FB2EE0BD48844208D10121202000F0B6
:102A100009FB0021202000F005FB22E0B848844299
:102A200008D10121402000F0FDFA0021402000F0F3
:102A3000F9FA16E0B348844208D10121802000F061
:102A4000F1FA0021802000F0EDFA0AE0AE4884425D
:102A500007D10121801500F0E5FA0021A01500F052
:102A6000E1FA10BD10B50121084600F0DBFA0021A3
:102A7000012000F0D7FA10BD2DE9F04102460025F3
:102A80000026002000230024002791F803C00CF04A
:102A90000F0591F803C00CF0100CBCF1000F03D02F
:102AA00091F802C04CEA050591F800C0BCF1000F96
:102AB00031D0146800202BE04FF0010C0CFA00F329
:102AC000B1F800C00CEA03069E4220D183004FF00B
:102AD0000F0C0CFA03F7BC4305FA03FC4CEA0404A0
:102AE00091F803C0BCF1280F06D14FF0010C0CFA8D
:102AF00000FCC2F814C00AE091F803C0BCF1480F12
:102B000005D14FF0010C0CFA00FCC2F810C0401CBB
:102B10000828D1D31460B1F800C0BCF1FF0F34DD38
:102B2000546800202EE000F1080C4FF0010808FA6C
:102B30000CF3B1F800C00CEA03069E4221D18300D9
:102B40004FF00F0C0CFA03F7BC4305FA03FC4CEAF8
:102B5000040491F803C0BCF1280F05D100F1080C62
:102B600008FA0CF8C2F8148091F803C0BCF1480FC1
:102B700007D100F1080C4FF0010808FA0CF8C2F870
:102B80001080401C0828CED35460BDE8F0814FF679
:102B9000FF710180022181700421C17070470246DB
:102BA000002093680B400BB1012000E0002070472B
:102BB0000146886880B2704702460020D3680B4007
:102BC0000BB1012000E0002070470146C86880B2C8
:102BD000704701617047416170470AB1016100E0CF
:102BE00041617047C16070474FF480320A4382618F
:102BF0008161826182698269704702460020434B8D
:102C000018684FF68073184040EA021008433F4BA3
:102C1000186070473E49C8617047F0B50A46002306
:102C200000240021002500F00046B6F1004F02D13B
:102C3000364EF16901E0354E7168C0F3034583B249
:102C400000F44016B6F5401F08D121F070612F4EF8
:102C5000766826F070662D4F7E6012E000F48016D4
:102C6000B6F5801F06D1032606FA05F4A14341F00C
:102C7000706106E0460D360103FA06F6B14341F0F5
:102C8000706122B1460D360103FA06F6314300F0B9
:102C90000046B6F1004F02D11C4EF16101E01B4E1F
:102CA0007160F0BD30B500228B071C0F0F2303FAB3
:102CB00004F2164B08338C1053F824309343134C12
:102CC00008348D1044F8253023468C1053F82430F6
:102CD0008C07240F00FA04F423430C4C08348D10A5
:102CE00044F8253030BD0A49DC31086070470000E7
:102CF00000080140000C0140001001400014014098
:102D000000180140001C014000200140000001406B
:102D100000002042DF48006840F00100DD49086003
:102D200008464068DC490840DA49486008460068BF
:102D3000DA490840D74908600846006820F4802036
:102D400008600846406820F4FE0048604FF41F0009
:102D500088607047CF49096821F48031CD4A1160FD
:102D60001146096821F480211160B0F5803F03D03D
:102D7000B0F5802F0ED106E0C649096841F48031D4
:102D8000C44A116007E0C349096841F4A021C14A5F
:102D9000116000E000BF00BF704710B5014600227F
:102DA000002300204A11012A02D1BA4C236806E010
:102DB000022A02D1B74C236A01E0B64C636A01F0E3
:102DC0001F02012494401C400CB1012000E00020AF
:102DD00010BD38B5002000900024002500BF312030
:102DE000FFF7DBFF05460098401C00900098B0F507
:102DF000A06F01D0002DF2D03120FFF7CEFF08B137
:102E0000012400E00024204638BD01460020A14AEC
:102E1000106820F0F80040EAC10010607047A04937
:102E200008607047024600209A4B586820F47C10D6
:102E300042EA01031843974B586070479849086667
:102E4000704701460020934A506820F00300084371
:102E5000506070478F48406800F00C007047014692
:102E600000208C4A506820F0F00008435060704702
:102E700001460020874A506820F4E0600843506013
:102E8000704701460020834A506820F4605040EAB1
:102E9000C1005060704729B17E4A527A02437D4B8F
:102EA0005A7204E07B4A527A82437A4B5A727047D4
:102EB0007B49D8310860704701460020754A506848
:102EC00020F440400843506070470021714A20328E
:102ED0001170704A82F82010012802D004280AD10B
:102EE00004E001216B4A2032117005E00521694A96
:102EF0002032117000E000BF00BF704769490860D0
:102F000070476449096A0143624A11627047654922
:102F100044390860704730B50021002200240023A6
:102F20005C4D6D6805F00C0121B1042905D008291C
:102F300023D105E05C4D056022E05B4D05601FE09C
:102F4000544D6D6805F47012524D6D6805F480346F
:102F5000022505EB92421CB9544D554305600BE028
:102F60004C4D6D6805F400351DB1504D554305605D
:102F700002E04D4D5543056002E04B4D056000BF3A
:102F800000BF444D6D6805F0F0010909484D6B5CC8
:102F90000568DD4045603F4D6D6805F4E061090A54
:102FA000434D6B5C4568DD4085603A4D6D6805F4C6
:102FB0006051C90A3E4D6B5C4568DD40C560354DCA
:102FC0006D6805F44041890B3A4D6B5CC568B5FBF3
:102FD000F3F5056130BD29B12E4A526902432D4BEC
:102FE0005A6104E02B4A526982432A4B5A61704766
:102FF00029B1284A92690243264B9A6104E0254A86
:1030000092698243234B9A61704729B1214AD26960
:103010000243204BDA6104E01E4AD26982431D4B11
:10302000DA61704729B11B4AD2680243194BDA6052
:1030300004E0184AD2688243164BDA60704729B11F
:10304000144A12690243134B1A6104E0114A1269CF
:103050008243104B1A61704712494039086070472B
:103060000F49C86470470B49C87170470948406AE6
:1030700040F0807007494862704701460020054AC9
:1030800092680A400AB1012000E00020704701491F
:1030900088727047001002400000FFF8FFFFF6FE44
:1030A000000042428004424200127A0000093D00C2
:1030B0000E0900201E09002010B50446FB4884427A
:1030C00009D101218803FFF7ADFF00214FF48040B3
:1030D000FFF7A8FF32E0F648844209D101214804F5
:1030E000FFF7ADFF00214FF40030FFF7A8FF25E008
:1030F000F048844209D101218804FFF7A0FF002194
:103100004FF48020FFF79BFF18E0EB48844209D181
:103110000121C804FFF793FF00214FF40020FFF7BF
:103120008EFF0BE0E548844208D101210805FFF736
:1031300086FF00214FF48010FFF781FF10BD2DE9BD
:10314000F04786B005460E460024A24600BFA146C1
:103150000027B08900B100BF2F462C8A4CF6FF70C3
:103160000440F08804432C82AC894EF6F3100440EE
:10317000B08831890843718908430443AC81AC8A23
:103180004FF6FF400440B0890443AC8201A8FFF72A
:10319000C2FEC648874202D1DDF810A001E0DDF88A
:1031A0000CA0A88900F4004040B10AEBCA0000EB73
:1031B0000A1031684900B0FBF1F807E00AEBCA00D9
:1031C00000EB0A1031688900B0FBF1F86420B8FB0D
:1031D000F0F004012009642101FB1089A88900F4A2
:1031E000004040B1322000EBC900B0FBF1F000F02C
:1031F0000700044308E0322000EB09106421B0FB13
:10320000F1F000F00F0004432C8106B0BDE8F08718
:103210004FF41651016000218180C18001810C2191
:10322000418100218181704710B502460020108A3B
:103230004FF2FF0318400B884C8823438C882343AC
:10324000CC8823431843108210BD002101804180A7
:103250008180C180704721B1828942F4005282810D
:1032600004E082894DF6FF731A4082817047F0B501
:103270000346002400260025002040F66A17B942C4
:1032800000D100BF1846C1F3421401F01F06012708
:1032900007FA06F5012C01D10C3004E0022C01D113
:1032A000103000E014301AB107682F43076002E0C5
:1032B0000768AF430760F0BD1AB1838A0B4383826E
:1032C00002E0838A8B4383827047028A4FF6F07351
:1032D0001A400282028A0A430282704782894FF2B0
:1032E000FF731A40828182890A438281704721B12B
:1032F000828942F00202828104E082894FF6FD73E6
:103300001A4082817047028A4FF6DF731A400282A8
:10331000028A0A430282704721B1028A42F4804243
:10332000028204E0028A4BF6FF731A400282704761
:10333000C1F308028280704701468888C0F3080004
:103340007047818941F0010181817047028BD2B2BF
:103350000283028B42EA012202837047028B02F44D
:103360007F420283028B0A430283704721B1828A23
:1033700042F02002828204E0828A4FF6DF731A4014
:103380008282704721B1828A42F01002828204E078
:10339000828A4FF6EF731A408282704721B1828A87
:1033A00042F00802828204E0828A4FF6F7731A40E4
:1033B0008282704721B1828942F40042828103E017
:1033C0008289C2F30E028281704721B1828A42F45F
:1033D0000062828204E0828A4FF2FF731A40828286
:1033E0007047828A4FF6FB731A408282828A0A43B0
:1033F0008282704721B1828A42F00202828204E016
:10340000828A4FF6FD731A4082827047024600207E
:10341000B1F5007F00D100BF13880B400BB1012034
:1034200000E00020704701F40072B2F5007F00D187
:1034300000BFCA430280704770B5024600240023D3
:103440000025002040F66A16B14200D100BFC1F34A
:10345000421501F01F03012606FA03F3012D02D1E4
:103460009689334006E0022D02D1168A334001E0EE
:10347000968A33400C12012606FA04F4168834406A
:1034800013B10CB1012000E0002070BD10B5002286
:10349000002340F66A14A14200D100BF0A120124A1
:1034A0009440A3B2DC43048010BD0000003801400A
:1034B0000044004000480040004C004000500040E4
:1034C00031490143314A1160704770B50021002332
:1034D0000F22C47804B32D4C246804F4E064C4F5CE
:1034E000E064210AC1F10403CA40447804FA03F1FC
:1034F0008478144021430901254C0678A1550478AD
:1035000004F01F050124AC4005786D11AD0005F1F4
:10351000E025C5F8004109E0047804F01F05012406
:10352000AC401C4D0678761145F8264070BD1A4A0D
:103530000A400243154B1B1F1A60704739B1134AEA
:10354000121D12680243114B1B1D1A6006E00F4A40
:10355000121D126882430D4B1B1D1A607047042810
:1035600008D14FF0E021096941F004014FF0E02259
:10357000116107E04FF0E021096921F004014FF0EB
:10358000E0221161704700000000FA050CED00E038
:1035900000E400E080E100E080FFFF1F10B504467A
:1035A000FE48844208D10121C014FFF73BFD0021F1
:1035B000E014FFF737FDC4E0B4F1804F08D10121DA
:1035C0000846FFF73CFD00210120FFF738FDB8E079
:1035D000F348844208D101210220FFF730FD002189
:1035E0000220FFF72CFDACE0EE48844208D1012117
:1035F0000420FFF724FD00210420FFF720FDA0E0B8
:10360000E948844208D101210820FFF718FD002174
:103610000820FFF714FD94E0E448844208D101211A
:103620001020FFF70CFD00211020FFF708FD88E0B7
:10363000DF48844208D101212020FFF700FD00214E
:103640002020FFF7FCFC7CE0DA48844208D101210D
:103650004014FFF7E7FC00216014FFF7E3FC70E083
:10366000D548844209D10121C804FFF7DBFC0021C1
:103670004FF40020FFF7D6FC63E0D048844209D124
:1036800001210805FFF7CEFC00214FF48010FFF761
:10369000C9FC56E0CA48844209D101214805FFF718
:1036A000C1FC00214FF40010FFF7BCFC49E0C54805
:1036B000844208D101214020FFF7C1FC00214020B5
:1036C000FFF7BDFC3DE0C048844208D101218020C5
:1036D000FFF7B5FC00218020FFF7B1FC31E0BB48CB
:1036E000844208D101218015FFF7A9FC0021A01513
:1036F000FFF7A5FC25E0B648844209D10121080462
:10370000FFF790FC00214FF48030FFF78BFC18E0AE
:10371000B048844209D101214804FFF783FC00210D
:103720004FF40030FFF77EFC0BE0AB48844208D139
:1037300001218804FFF776FC00214FF48020FFF779
:1037400071FC10BD00220288944B98420ED0994B18
:1037500098420BD0B0F1804F08D0914B984205D0E1
:10376000904B984202D0904B984204D14FF68F7301
:103770001A404B881A438D4B984207D08C4B984285
:1037800004D04FF6FF431A40CB881A4302808B883F
:1037900083850B880385814B98420BD0854B9842DB
:1037A00008D08B4B984205D08A4B984202D08A4B66
:1037B000984201D10B7A038601238382704770B54A
:1037C000002400220023058C4FF6FE763540058448
:1037D000028C8388048B4FF68F752C40B51E2C40CD
:1037E0000D882C43751E2A400D892A434D882A4393
:1037F0006A4DA8420BD06F4DA84208D0744DA84224
:1038000005D0744DA84202D0734DA84213D14FF693
:10381000F7752A404D892A434FF6FB752A408D885B
:103820002A434FF6FF652B404FF6FF552B408D89FD
:103830002B43CD892B4383800483CD8885860284E6
:1038400070BD70B5002400220023058C4FF6EF7682
:1038500035400584028C8388048B48F6FF752C4024
:103860004FF6FF452C400D884FF6FF7606EA0525FA
:103870002C434FF6DF752A400D8906EA05152A43C9
:103880004D8806EA05152A43444DA84202D0494D09
:10389000A8421DD14FF67F752A404D894FF6FF761D
:1038A00006EA05152A434FF6BF752A408D8806EAB9
:1038B00005152A434FF6FF352B404FF2FF752B407D
:1038C0008D8906EA85052B43CD8906EA85052B43BC
:1038D00083800483CD880587028470BD70B5002481
:1038E00000220023058C4FF6FF6635400584028CCC
:1038F0008388848B4FF68F752C404FF6FC752C40D7
:103900000D882C434FF6FF552A400D894FF6FF7660
:1039100006EA05252A434D8806EA05252A431F4D58
:10392000A84202D0234DA8421DD14FF2FF752A4074
:103930004D894FF6FF7606EA05252A434FF6FF35F7
:103940002A408D8806EA05252A434EF6FF752B404E
:103950004DF6FF752B408D8906EA05152B43CD8961
:1039600006EA05152B4383808483CD8885870284EE
:1039700070BD70B5002200230024058C4EF6FF7642
:1039800035400584038C8488828B48F6FF752A4075
:103990004FF6FF452A400D8820E00000002C014032
:1039A0000004004000080040000C004000100040EF
:1039B0000014004000340140004C01400050014020
:1039C0000054014000180040001C0040002000404E
:1039D0000040014000440140004801404FF6FF769E
:1039E00006EA05252A434DF6FF752B400D8906EAA8
:1039F00005352B434D8806EA05352B43FA4DA84281
:103A000002D0FA4DA84208D14BF6FF752C408D89A3
:103A10004FF6FF7606EA85152C4384808283CD8895
:103A2000A0F84050038470BD828B4FF2FF331A40E0
:103A30008283828B4FF6FF7303EA01231A4382834A
:103A40007047F0B50C461546002200210026078C71
:103A50004EF6FF7C07EA0C070784828B018C4FF639
:103A6000FF7707EA043640F6FF473A404FF6FF7704
:103A700007EA05273A434FF6FF7707EA03373A4349
:103A8000D94FB8420ED0D94FB8420BD0B0F1804FC9
:103A900008D0D74FB84205D0D64FB84202D0D64F43
:103AA000B84206D14DF6FF77394046F48057394386
:103AB00005E047F6FF57394044F480573943828385
:103AC0000184F0BD828B4FF6F3731A408283828BA0
:103AD0000A4382837047F0B50C4615460022002148
:103AE0000026078C4FF6FF6C07EA0C070784828BD1
:103AF000018C4FF6FF7707EA04264FF60C773A4021
:103B00004FF6FF7707EA03172F433A43B64FB84201
:103B10000ED0B64FB8420BD0B0F1804F08D0B44FA2
:103B2000B84205D0B34FB84202D0B34FB84206D125
:103B30004FF6FF57394046F48077394305E04FF29E
:103B4000FF57394044F48077394382830184F0BDC4
:103B5000028B4FF2FF331A400283028B4FF6FF7342
:103B600003EA01231A4302837047F0B50C46154659
:103B7000002200210026078C4FF6EF7C07EA0C0795
:103B80000784028B018C4FF6FF7707EA041640F694
:103B9000FF473A404FF6FF7707EA03373A434FF6BD
:103BA000FF7707EA05273A438F4FB8420ED08F4F71
:103BB000B8420BD0B0F1804F08D08D4FB84205D03D
:103BC0008C4FB84202D08C4FB84206D14FF6DF7707
:103BD000394046F01007394305E04FF65F7739402A
:103BE00044F01007394302830184F0BD028B4FF685
:103BF000F3731A400283028B0A4302837047F0B5C5
:103C00000C46154600220021068C4FF6FE773E40FA
:103C10000684028B018C4FF60C7632407E1C06EA3D
:103C200003162E433243704EB0420ED06F4EB04258
:103C30000BD0B0F1804F08D06D4EB04205D06D4E24
:103C4000B04202D06C4EB04206D14FF6FD76314004
:103C500044F00106314305E04FF6F576314044F07B
:103C60000106314302830184F0BD70B505460C4660
:103C70005D4885420ED05D4885420BD0B5F1804F3E
:103C800008D05B48854205D05A48854202D05A4840
:103C9000854200D100E000BF208850B92389A28866
:103CA00061882846FFF7ABFFE1882846FFF79EFFB3
:103CB00025E0208804280AD12389A2886188284623
:103CC000FFF753FFE1882846FFF742FF17E02088FF
:103CD00008280AD12389A28861882846FFF7FBFEBD
:103CE000E1882846FFF7EEFE09E02389A288618873
:103CF0002846FFF7A6FEE1882846FFF795FE70BD2F
:103D00002DE9F04105460C4600260127608808B9D8
:103D1000022600E00026A088012801D1022700E049
:103D200001272088A0B92389A28861882846FFF747
:103D300066FFE1882846FFF759FF23893A46314656
:103D40002846FFF712FFE1882846FFF701FF13E03E
:103D50002389A28861882846FFF707FFE188284663
:103D6000FFF7F6FE23893A4631462846FFF747FF1C
:103D7000E1882846FFF73AFFBDE8F0810A884B88C2
:103D80001A438B881A43CB881A430B891A434B89F1
:103D90001A438B891A43A0F8442070474FF6FF71ED
:103DA000818000210180C180418001727047002123
:103DB000018041808180C180018141818181C181F7
:103DC0007047002101804180012181800021C18054
:103DD000018170470021018041808180C180018183
:103DE0004181818170470000002C01400034014076
:103DF0000004004000080040000C004021B102888F
:103E000042F00102028004E002884FF6FE731A407D
:103E10000280704731B1B0F8442042F40042A0F86B
:103E2000442005E0B0F84420C2F30E02A0F844207C
:103E300070471AB183890B43838102E083898B43E6
:103E4000838170478182704741EA0203A0F84830BD
:103E500070471AB183890B43838102E083898B43C6
:103E60008381704701894FF6F872114001817047D4
:103E70000A46002101894FF68F73194011430181D1
:103E8000704730B504460D4629462046FFF7F0FF3F
:103E9000208940F00700208130BD2DE9F041044623
:103EA0000D4616461F46602D06D13B46012231467F
:103EB0002046FFF75AFE05E03B46012231462046E8
:103EC000FFF79DFE29462046FFF7D2FF208940F0EC
:103ED00007002081BDE8F08130B50C460021018942
:103EE000C9B24FF6FF7505EA03251543254329435B
:103EF000018130BD2DE9F04105460E461746984632
:103F0000002443463A4631462846FFF7E5FF2C8910
:103F10004FF6F870044044F007044FF68F700440E9
:103F200044F070042C81BDE8F081F0B504460D46E4
:103F300016461F463B46324629462046FFF7CCFF31
:103F4000208940F480402081F0BD01858282704745
:103F50000A46002101884FF68F73194011430180F2
:103F60007047F0B50C4615461E460021002200237E
:103F70000189028B038C4FF6F877394021434FF6C5
:103F8000FC473A4040F201173A434FF6DD773B4099
:103F90004FF6FF7707EA06172F433B430181028361
:103FA0000384F0BD0A460021018B4FF68F73194040
:103FB0001143018370470A460021018B48F6FF73C5
:103FC00019404FF6FF7303EA022319430183704738
:103FD0000A460021818B4FF68F731940114381836C
:103FE00070470A460021818B48F6FF7319404FF64F
:103FF000FF7303EA022319438183704721B10288CA
:1040000042F08002028004E002884FF67F731A407B
:104010000280704721B1828842F00402828004E06D
:1040200082884FF6FB731A408280704721B18288E4
:1040300042F00802828004E082884FF6F7731A404B
:104040008280704721B1828842F00102828004E0C0
:1040500082884FF6FE731A40828070470A4600211C
:10406000018B4FF6F77319401143018370470A46DD
:104070000021018B4FF2FF7319404FF6FF7303EAE3
:1040800002231943018370470A460021818B4FF6B2
:10409000F77319401143818370470A460021818BD1
:1040A0004FF2FF7319404FF6FF7303EA02231943DF
:1040B000818370470A460021018B4FF6FB7319403C
:1040C0001143018370470A460021018B4FF6FF33ED
:1040D00019404FF6FF7303EA022319430183704727
:1040E0000A460021818B4FF6FB73194011438183EF
:1040F00070470A460021818B4FF6FF3319404FF677
:10410000FF7303EA02231943818370470A460021A3
:10411000018B4FF67F7319401143018370470A46A4
:104120000021018BC1F30E014FF6FF7303EA022356
:104130001943018370470A460021818B4FF67F7334
:1041400019401143818370470A460021818BC1F3D6
:104150000E014FF6FF7303EA022319438183704770
:104160000A460021018C4FF6FD731940114301846A
:1041700070470A460021018C4FF6F773194011432E
:10418000018470470A460021018C4FF6DF73194005
:104190004FF6FF7303EA02131943018470470A467E
:1041A0000021018C4FF67F7319404FF6FF7303EA2D
:1041B00002131943018470470A460021018C4FF60F
:1041C000FF5319404FF6FF7303EA0223194301849A
:1041D00070470A460021018C4FF2FF7319404FF6D9
:1041E000FF7303EA02231943018470470A46002142
:1041F000018C4DF6FF7319404FF6FF7303EA02334B
:1042000019430184704730B5002301248C40A3B2C8
:10421000048C9C430484048C02FA01F5ADB22C4357
:10422000048430BD30B5002304248C40A3B2048C38
:104230009C430484048C02FA01F5ADB22C4304843F
:1042400030BD70B503460020002418461830012503
:104250008D40ACB21D8CA5431D8409B1082909D13C
:1042600000EB6100056825F07005056005681543E1
:1042700005600EE00D1FC5F34E052844056825F4C2
:10428000E045056005684FF6FF7606EA02263543ED
:10429000056070BD21B1028842F00202028004E094
:1042A00002884FF6FD731A400280704721B10288E0
:1042B00042F00402028004E002884FF6FB731A40C9
:1042C0000280704721B1828842F08002828004E03F
:1042D00082884FF67F731A408280704702884FF6BB
:1042E000F7731A40028002880A430280704782886E
:1042F0004FF68F731A40828082880A43828070470B
:1043000002894FF6F8731A40028102890A4302813A
:10431000704702894FF67F731A40028102890A436F
:10432000028170478184704781857047818670471C
:104330000187704781877047A0F840107047028856
:104340004FF6FF431A40028002880A4302807047FA
:104350000146888E70470146088F70470146888F56
:1043600070470146B1F8400070470146888C70479D
:104370000146088D704702460020138A0B400BB19E
:10438000012000E000207047CA430282704730B528
:104390000246002000230024158A05EA01039589BE
:1043A00005EA010413B10CB1012000E0002030BD8A
:1043B000CA4302827047000010B50446FA4884429E
:1043C00008D101214015FEF72DFE00216015FEF7F2
:1043D00029FE17E0F548844208D101210015FEF7B7
:1043E00021FE00212015FEF71DFE0BE0F04884425F
:1043F00008D10121C803FEF715FE00214FF400404B
:10440000FEF710FE10BD30B50246002000235068B4
:10441000E84C20400D790C6844EA052420435060A4
:104420009068E54C2040D1E902542C434D7944EA90
:10443000450420439060D06A20F470000C7C641E18
:10444000E4B2234340EA0350D06230BD0021016052
:10445000017141718160C16001210174704721B116
:10446000826842F00102826003E0826822F0010269
:104470008260704721B1826842F48072826003E0FA
:10448000826822F480728260704710B50023CBB23C
:104490001AB144681C43446002E044689C43446091
:1044A00010BD816841F0080181607047014600201D
:1044B0008A6802F008020AB1012000E0002070477B
:1044C000816841F0040181607047014600208A68DC
:1044D00002F004020AB1012000E00020704721B17F
:1044E000826842F4A002826003E0826822F4A002A3
:1044F00082607047014600208A6802F480020AB197
:10450000012000E00020704710B50A46002100237A
:10451000416821F46041531E41EA4331416010BDBE
:1045200021B1426842F40062426003E0426822F432
:10453000006242607047F0B504460D46002000213D
:10454000092D11DDE068A5F10A0606EB46070726EE
:1045500006FA07F18843A5F10A0606EB460603FAB8
:1045600006F10843E0600CE0206905EB45070726EB
:1045700006FA07F1884305EB450603FA06F10843FE
:104580002061072A0FDA606B561E06EB86071F268E
:1045900006FA07F18843561E06EB860605FA06F171
:1045A0000843606322E00D2A0FDA206BD61F06EB6A
:1045B00086071F2606FA07F18843D61F06EB8606F4
:1045C00005FA06F10843206310E0E06AA2F10D0647
:1045D00006EB86071F2606FA07F18843A2F10D06AF
:1045E00006EB860605FA06F10843E062F0BD21B14C
:1045F000826842F48012826003E0826822F48012B2
:10460000826070470146C86C80B2704766484C3083
:104610000068704721B1426842F48062426003E062
:10462000426822F480624260704721B1426842F4DD
:104630008052426003E0426822F480524260704738
:104640000A460021816821F4E041114381607047EE
:1046500021B1826842F40042826003E0826822F461
:1046600000428260704721B1826842F40212826087
:1046700003E0826822F40212826070470146002043
:104680008A6802F400120AB1012000E0002070479D
:10469000F0B504461546002000220026092911DD48
:1046A000E068A1F10A0707EB470C072707FA0CF2AD
:1046B0009043A1F10A0707EB470703FA07F21043FB
:1046C000E0600CE0206901EB410C072707FA0CF2CF
:1046D000904301EB410703FA07F210432061A06BFE
:1046E000C0F30156EF1C06F1010CA7EB0C0707EB1A
:1046F000870C1F2707FA0CF29043EF1C06F1010C00
:10470000A7EB0C0707EB870701FA07F21043A0633A
:10471000F0BD10B50A4600210023816B21F4401141
:10472000531E41EA0351816310BD08B50023009375
:104730000090009B0B440093009B1A6008BD08B5D5
:10474000024600200090009201F12800009B1844CE
:1047500000900098006880B208BD0A4600214168B8
:10476000164B1940114341607047416282627047A5
:104770000A460021416821F01F0111434160704742
:1047800040B109490831096841F40001064A08327C
:10479000116007E004490831096821F40001024A68
:1047A00008321160704700000024014000280140D9
:1047B000003C0140FFFEF0FFFDF7F1FFFFFD3FFF72
:1047C0000246002013680B400BB1012000E00020DE
:1047D0007047CA430260704770B50246002000234C
:1047E00000240B125568CEB205EA060415681D4078
:1047F00015B10CB1012000E0002070BD00220A12AA
:10480000D34303607047000001684FF6FE72114009
:1048100001600021016041608160C1608D49884272
:1048200008D18C490839496841F00F01894A083A92
:1048300051608AE087491431884208D18549083996
:10484000496841F0F001834A083A51607DE08149AE
:104850002831884208D17F490839496841F470619C
:104860007C4A083A516070E07A493C31884208D16C
:1048700078490839496841F47041764A083A5160EC
:1048800063E074495031884208D172490839496857
:1048900041F470216F4A083A516056E06D49643125
:1048A000884208D16B490839496841F47001694A66
:1048B000083A516049E067497831884208D1654932
:1048C0000839496841F07061624A083A51603CE039
:1048D0006149884206D1011F096841F00F01021F9A
:1048E000116032E05C491431884208D15A49091FED
:1048F000096841F0F001584A121F116025E056493D
:104900002831884208D15449091F096841F470616F
:10491000514A121F116018E04F493C31884208D1BA
:104920004D49091F096841F470414B4A121F11603B
:104930000BE049495031884207D14749091F0968AE
:1049400041F47021444A121F1160704710B50022D3
:10495000026847F6F0739A430C6A8B6823430C692C
:1049600023434C6923438C692343CC6923434C6A1A
:1049700023438C6A23431A430260CB6843600B686D
:1049800083604B68C36010BD00210160416081609D
:10499000C160016141618161C16101624162816205
:1049A000704721B1026842F00102026004E002682F
:1049B0004FF6FE731A40026070471AB103680B434A
:1049C000036002E003688B430360704741607047F7
:1049D0000146486880B2704701460020002201F07D
:1049E00080531BB11C4B083B1A6802E0194B083B73
:1049F0001A6802EA01030BB1012000E000207047B1
:104A000000F0805119B11449091F086002E01149F2
:104A100008394860704701460020002201F08053A9
:104A20001BB10D4B083B1A6802E00A4B083B1A68A1
:104A300002EA01030BB1012000E00020704700F002
:104A4000805119B10449091F086002E00149083981
:104A5000486070470800024008040240704710B5E3
:104A6000203AC0F00B80B1E81850203AA0E8185066
:104A7000B1E81850A0E81850BFF4F5AF5FEA027C27
:104A800024BFB1E81850A0E8185044BF18C918C096
:104A9000BDE810405FEA827C24BF51F8043B40F837
:104AA000043B08BF7047D20728BF31F8023B48BF1C
:104AB00011F8012B28BF20F8023B48BF00F8012B5A
:104AC00070474FF0000200B51346944696462039D1
:104AD00022BFA0E80C50A0E80C50B1F12001BFF4B7
:104AE000F7AF090728BFA0E80C5048BF0CC05DF81D
:104AF00004EB890028BF40F8042B08BF704748BF6B
:104B000020F8022B11F0804F18BF00F8012B7047DE
:104B10007047704770477047754600F029F8AE46F9
:104B200005006946534620F00700854618B020B5B9
:104B3000FDF730FFBDE820404FF000064FF00007C2
:104B40004FF000084FF0000B21F00701AC46ACE835
:104B5000C009ACE8C009ACE8C009ACE8C0098D46A2
:104B600070470446AFF300802046FBF748FB000087
:104B70000048704794490020000000000000000039
:104B8000002F000000000700070000147F147F14AE
:104B900000242A7F2A120062640813230036495534
:104BA000225000000503000000001C22410000000C
:104BB00041221C000014083E08140008083E0808A2
:104BC000000000A0600000080808080800006060FD
:104BD0000000002010080402003E5149453E00003C
:104BE000427F4000004261514946002141454B311E
:104BF000001814127F10002745454539003C4A49EA
:104C0000493000017109050300364949493600065B
:104C10004949291E000036360000000056360000C3
:104C2000000814224100001414141414000041223E
:104C3000140800020151090600324959513E007C16
:104C40001211127C007F49494936003E4141412200
:104C5000007F4141221C007F49494941007F0909E9
:104C60000901003E4149497A007F0808087F000099
:104C7000417F4100002040413F01007F0814224154
:104C8000007F40404040007F020C027F007F04080C
:104C9000107F003E4141413E007F09090906003E68
:104CA0004151215E007F0919294600464949493191
:104CB0000001017F0101003F4040403F001F2040B4
:104CC000201F003F4038403F006314081463000772
:104CD0000870080700615149454300007F414100C9
:104CE00000552A552A55000041417F000004020169
:104CF0000204004040404040000001020400002047
:104D000054545478007F4844443800384444442084
:104D100000384444487F00385454541800087E0931
:104D200001020018A4A4A47C007F080404780000F9
:104D3000447D4000004080847D00007F10284400B6
:104D40000000417F4000007C04180478007C0804C7
:104D5000047800384444443800FC24242418001803
:104D6000242418FC007C08040408004854545420EF
:104D700000043F444020003C4040207C001C204078
:104D8000201C003C4030403C004428102844001CBB
:104D9000A0A0A07C004464544C44141414141414B3
:104DA0000000000000000000000000000000000003
:104DB000000000F800000000000000333000000098
:104DC00000100C06100C060000000000000000009F
:104DD00040C07840C0784000043F04043F04040011
:104DE000007088FC08300000001820FF211E000021
:104DF000F008F000E018000000211C031E211E0036
:104E000000F00888700000001E21232419272110BB
:104E100010160E000000000000000000000000005E
:104E2000000000E018040200000000071820400005
:104E300000020418E00000000040201807000000F5
:104E4000404080F0804040000202010F0102020059
:104E5000000000F0000000000101011F010101003D
:104E6000000000000000000080B0700000000000A2
:104E7000000000000000000000010101010101012B
:104E800000000000000000000030300000000000C2
:104E90000000000080601804006018060100000097
:104EA00000E010080810E000000F102020100F0094
:104EB000001010F8000000000020203F202000001B
:104EC0000070080808887000003028242221300073
:104ED00000300888884830000018202020110E007B
:104EE0000000C02010F8000000070424243F240024
:104EF00000F80888880808000019212020110E00F9
:104F000000E0108888180000000F112020110E000A
:104F100000380808C83808000000003F0000000002
:104F20000070880808887000001C222121221C00C3
:104F300000E010080810E0000000312222110F00EC
:104F4000000000C0C0000000000000303000000081
:104F500000000080000000000000806000000000F1
:104F6000000080402010080000010204081020000A
:104F70004040404040404000040404040404040055
:104F800000081020408000000020100804020100EA
:104F9000007048080808F0000000003036010000EA
:104FA000C030C828E810E0000718272423140B009D
:104FB0000000C038E0000000203C23020227382017
:104FC00008F8888888700000203F202020110E00FB
:104FD000C0300808080838000718202020100800F2
:104FE00008F808080810E000203F202020100F00DB
:104FF00008F88888E8081000203F202023201800A7
:1050000008F88888E8081000203F2000030000000E
:10501000C03008080838000007182020221E0200AF
:1050200008F808000008F808203F210101213F206E
:10503000000808F8080800000020203F2020000099
:1050400000000808F8080800C08080807F00000089
:1050500008F888C028180800203F200126382000C2
:1050600008F8080000000000203F20202020300029
:1050700008F8F800F8F80800203F003F003F200043
:1050800008F830C00008F808203F200007183F004B
:10509000E01008080810E0000F10202020100F007A
:1050A00008F808080808F000203F2101010100006D
:1050B000E01008080810E0000F18242438504F00B2
:1050C00008F8888888887000203F2000030C302072
:1050D00000708808080838000038202121221C00B0
:1050E000180808F8080818000000203F20000000F9
:1050F00008F808000008F808001F202020201F00E2
:105100000878880000C83808000007380E01000041
:10511000F80800F80008F800033C0700073C03000B
:10512000081868808068180820302C03032C302071
:105130000838C800C83808000000203F20000000E0
:1051400010080808C8380800203826212020180038
:10515000000000FE020202000000007F404040000C
:10516000000C30C000000000000000010638C00044
:1051700000020202FE000000004040407F000000EC
:105180000000040202020400000000000000000011
:10519000000000000000000080808080808080800F
:1051A00000020204000000000000000000000000F7
:1051B00000008080808000000019242222223F20ED
:1051C00008F8008080000000003F112020110E0030
:1051D0000000008080800000000E112020201100BF
:1051E000000000808088F800000E112020103F2071
:1051F0000000808080800000001F222222221300F5
:10520000008080F0888888180020203F202000003F
:105210000000808080808000006B949494936000F4
:1052200008F8008080800000203F210000203F20FF
:1052300000809898000000000020203F20200000FF
:10524000000000809898000000C08080807F0000EF
:1052500008F8000080808000203F24022D302000CC
:10526000000808F8000000000020203F2020000077
:105270008080808080808000203F20003F20003F91
:105280008080008080800000203F210000203F209F
:105290000000808080800000001F202020201F0050
:1052A000808000808000000080FFA12020110E007F
:1052B0000000008080808000000E112020A0FF8070
:1052C000808080008080800020203F21200001001D
:1052D0000000808080808000003324242424190072
:1052E000008080E0808000000000001F202000007F
:1052F0008080000000808000001F202020103F20C0
:10530000808080000080808000010E30080601004F
:1053100080800080008080800F300C030C300F00F4
:1053200000808000808080000020312E0E3120001F
:10533000808080000080808080818E70180601004F
:1053400000808080808080000021302C222130006D
:1053500000000000807C020200000000003F40408E
:1053600000000000FF00000000000000FF0000003F
:105370000002027C800000000040403F000000006E
:105380000006010102020404000000000000000009
:10539000DC05DC05DC05DC05DC05DC05DC05DC0505
:1053A000DC05DC05DC05DC05DC05DC05DC05DC05F5
:1053B000DC05DC05DC05DC05DC05DC05DC05DC05E5
:1053C00000000000000000000000000000000000DD
:1053D0004006B004DC0500000000000000000000F2
:1053E000000000000000000078050807DC05000050
:1053F00000000000000000000000000000000000AD
:105400009808FC08F4010000000000000000000003
:1054100000000000000000002003BC02C4090000DE
:10542000000000000000000000000000000000007C
:105430000807A406E80300000000000000000000C8
:105440000000000000000000B0041405D0070000B8
:105450000000000000000000000000000000A406A2
:10546000000000000000A406000000000000000092
:1054700000000000000014050000000000001405FA
:105480000000000000000000000000000000A40672
:10549000000000000000A406000000000000000062
:1054A000000000000000A406000000000000A406A8
:1054B00000000000000000000000000000001405D3
:1054C00000000000000014050000000000000000C3
:1054D000000000000000140500000000000014059A
:1054E0000000DC050000000000000000E2040000F5
:1054F0006C074006000000000000000000000000F3
:1055000000000000EE020000E80314050807000098
:105510000000E80300000000000000000000DC05BF
:1055200014057805E80340060000000000000000B4
:10553000000000000000DC051405780500004006AE
:105540000000F401000000000000000000007805E9
:1055500000000000000072060000000000000000D3
:105560000000000000004605000000000000720678
:105570000000DC050000000000000000D0077805F6
:10558000D007A406B004720600000000000000006E
:1055900000000000DC0546054C047805000072069A
:1055A0000000D00700000000000000000000DC0543
:1055B000A40640060000780500000000000000007E
:1055C000000000000000DC05A4064006D0077805B6
:1055D0000000C40900000000000000000000720686
:1055E0000000000000004605000000000000000070
:1055F000000000000000400600000000000046051A
:105600000101010101000000E0D5010800000020B7
:10561000240900006C01000804D9010824090020B5
:10562000D4460000C801000800000000000000008F
:10563000000000000000000000000000000000006A
:10564000000000000000000000000000000000005A
:10565000000000000000000000000000000000004A
:10566000000000000000000000000000000000003A
:020000040801F1
:100000000000DC0500000000DC0560096C07DC0571
:10001000CC06DC05C504DC05000000000000000083
:10002000DC0558024C04DC05E204DC05F206DC05C4
:10003000F4010000DC0500000000DC0598086C07F6
:10004000DC05CC06DC05C504DC0500000000000072
:100050000000DC0520034C04DC05E204DC05F206AC
:10006000DC0558020000DC05000000003B06C40966
:100070002A03DC057107B2064204DC05000000001B
:10008000000000007D05F4018E08DC05470406052C
:100090007607DC052C010000DC05000000003B06B3
:1000A000C4092A03DC057107B2064204DC0500001E
:1000B0000000000000007D05F4018E08DC05470407
:1000C00006057607DC0564000000DC050000000082
:1000D0000008C4099505DC05D0074107D003DC05FD
:1000E0000000000000000000B803F4012306DC0556
:1000F000E8037704E807DC05C8000000DC05000021
:1001000000003B06C4092A03DC057107B20642045D
:10011000DC0500000000000000007D05F4018E08F1
:10012000DC05470406057607DC052C010000DC052C
:10013000000000000008C4099505DC05D007410750
:10014000D003DC050000000000000000B803F4014B
:100150002306DC05E8037704E807DC05C800000097
:10016000DC05000000003B06C4092A03DC0571071A
:10017000B2064204DC0500000000000000007D051E
:10018000F4018E08DC05470406057607DC052C0122
:100190000000DC05000000000008C4099505DC052E
:1001A000D0074107D003DC0500000000000000007C
:1001B000B803F4012306DC05E8037704E807DC054F
:1001C000C8000000DC05000000003B06C4092A034B
:1001D000DC057107B2064204DC05000000000000E7
:1001E00000007D05F4018E08DC054704060576074E
:1001F000DC052C010000DC05000000000008C4093B
:100200009505DC05D0074107D003DC0500000000A0
:1002100000000000B803F4012306DC05E8037704BE
:10022000E807DC05C8000000DC050000000000084D
:10023000C4099505DC05D0074107D003DC050000A3
:10024000000000000000B803F4012306DC05E80309
:100250007704E807DC0564000000DC05000000000E
:100260007708C4094C042C06CC06DC05C4042C0613
:100270000000000000000000DC05DC054C048C05DB
:10028000E204DC05F2068C0590010000DC050000AC
:100290000000BE08C4096505D606BC079A067104AD
:1002A000860600000000000000004708FA024C0427
:1002B0002C061A040A0544070E062C010000DC0572
:1002C000000000007708C4094C042C06CC06DC05AD
:1002D000C4042C060000000000000000DC05DC0562
:1002E0004C048C05E204DC05F2068C052C010000B0
:1002F000DC0500000000BE08C4096505D606BC0781
:100300009A067104860600000000000000004708FD
:10031000FA024C042C061A040A0544070E062C01A6
:100320000000DC05000000007708C4094C042C061E
:10033000CC06DC05C4042C06000000000000000010
:10034000DC05DC054C048C05E204DC05F2068C05BA
:100350002C010000DC0500000000BE08C409650592
:10036000D606BC079A06710486060000000000004D
:1003700000004708FA024C042C061A040A05440738
:100380000E062C010000DC05000000007708C409FF
:100390004C042C06CC06DC05C4042C06000000002E
:1003A00000000000DC05DC054C048C05E204DC05E3
:1003B000F2068C052C010000DC050000000000089E
:1003C000C4099505DC05D0074107D003DC05000012
:1003D000000000000000B803F4012306DC05E80378
:1003E0007704E807DC055E010000DC050000000082
:1003F0003B06C4092A03DC057107B2064204DC058A
:1004000000000000000000007D05F4018E08DC05FE
:10041000470406057607DC052C010000DC0500001A
:1004200000000008C4099505DC05D0074107D0038A
:10043000DC050000000000000000B803F401230602
:10044000DC05E8037704E807DC05C8000000DC05EC
:10045000000000003B06C4092A03DC057107B20650
